{"abi":[{"type":"receive","stateMutability":"payable"},{"type":"function","name":"client","inputs":[],"outputs":[{"name":"","type":"address","internalType":"address"}],"stateMutability":"view"},{"type":"function","name":"initialize","inputs":[{"name":"_client","type":"address","internalType":"address"}],"outputs":[],"stateMutability":"nonpayable"},{"type":"function","name":"withdrawNative","inputs":[],"outputs":[],"stateMutability":"nonpayable"},{"type":"function","name":"withdrawToken","inputs":[{"name":"token","type":"address","internalType":"address"}],"outputs":[],"stateMutability":"nonpayable"},{"type":"event","name":"NativeWithdrawn","inputs":[{"name":"to","type":"address","indexed":false,"internalType":"address"},{"name":"amount","type":"uint256","indexed":false,"internalType":"uint256"}],"anonymous":false},{"type":"event","name":"TokenWithdrawn","inputs":[{"name":"to","type":"address","indexed":true,"internalType":"address"},{"name":"token","type":"address","indexed":false,"internalType":"address"},{"name":"amount","type":"uint256","indexed":false,"internalType":"uint256"}],"anonymous":false}],"bytecode":{"object":"0x6080604052348015600f57600080fd5b506103f48061001f6000396000f3fe6080604052600436106100435760003560e01c8063109e94cf1461004f57806350431ce41461008b57806389476069146100a2578063c4d66de8146100c257600080fd5b3661004a57005b600080fd5b34801561005b57600080fd5b5060005461006f906001600160a01b031681565b6040516001600160a01b03909116815260200160405180910390f35b34801561009757600080fd5b506100a06100ff565b005b3480156100ae57600080fd5b506100a06100bd366004610353565b6101e4565b3480156100ce57600080fd5b506100a06100dd366004610353565b600080546001600160a01b0319166001600160a01b0392909216919091179055565b600080546040514792916001600160a01b03169083908381818185875af1925050503d806000811461014d576040519150601f19603f3d011682016040523d82523d6000602084013e610152565b606091505b505090508061019a5760405162461bcd60e51b815260206004820152600f60248201526e2830bcb6b2b73a102330b4b632b21760891b60448201526064015b60405180910390fd5b600054604080516001600160a01b039092168252602082018490527fc303ca808382409472acbbf899c316cf439f409f6584aae22df86dfa3c9ed504910160405180910390a15050565b6040516370a0823160e01b81523060048201526000906001600160a01b038316906370a0823190602401602060405180830381865afa15801561022b573d6000803e3d6000fd5b505050506040513d601f19601f8201168201806040525081019061024f9190610383565b60005460405163a9059cbb60e01b81526001600160a01b0391821660048201526024810183905291925083169063a9059cbb906044016020604051808303816000875af11580156102a4573d6000803e3d6000fd5b505050506040513d601f19601f820116820180604052508101906102c8919061039c565b6103055760405162461bcd60e51b815260206004820152600e60248201526d14185e5b595b9d0819985a5b195960921b6044820152606401610191565b600054604080516001600160a01b03858116825260208201859052909216917f8210728e7c071f615b840ee026032693858fbcd5e5359e67e438c890f59e5620910160405180910390a25050565b60006020828403121561036557600080fd5b81356001600160a01b038116811461037c57600080fd5b9392505050565b60006020828403121561039557600080fd5b5051919050565b6000602082840312156103ae57600080fd5b8151801515811461037c57600080fdfea26469706673582212205f50e14c7f15ad3ab38580f5e9d1f2a44592ee3d77fd8a0c46c0d3e9a24911bf64736f6c634300081a0033","linkReferences":{}},"methodIdentifiers":{"client()":"109e94cf","initialize(address)":"c4d66de8","withdrawNative()":"50431ce4","withdrawToken(address)":"89476069"},"id":4}