{"abi":[{"type":"constructor","inputs":[{"name":"_implementation","type":"address","internalType":"address"}],"stateMutability":"nonpayable"},{"type":"function","name":"deployWallet","inputs":[{"name":"salt","type":"bytes32","internalType":"bytes32"},{"name":"_client","type":"address","internalType":"address"}],"outputs":[{"name":"","type":"address","internalType":"address"}],"stateMutability":"nonpayable"},{"type":"function","name":"getDeployAddress","inputs":[{"name":"salt","type":"bytes32","internalType":"bytes32"}],"outputs":[{"name":"","type":"address","internalType":"address"}],"stateMutability":"view"},{"type":"function","name":"implementation","inputs":[],"outputs":[{"name":"","type":"address","internalType":"address"}],"stateMutability":"view"},{"type":"event","name":"WalletDeployed","inputs":[{"name":"wallet","type":"address","indexed":false,"internalType":"address"},{"name":"client","type":"address","indexed":false,"internalType":"address"},{"name":"salt","type":"bytes32","indexed":false,"internalType":"bytes32"}],"anonymous":false},{"type":"error","name":"FailedDeployment","inputs":[]},{"type":"error","name":"InsufficientBalance","inputs":[{"name":"balance","type":"uint256","internalType":"uint256"},{"name":"needed","type":"uint256","internalType":"uint256"}]}],"bytecode":{"object":"0x6080604052348015600f57600080fd5b5060405161034a38038061034a833981016040819052602c916050565b600080546001600160a01b0319166001600160a01b0392909216919091179055607e565b600060208284031215606157600080fd5b81516001600160a01b0381168114607757600080fd5b9392505050565b6102bd8061008d6000396000f3fe608060405234801561001057600080fd5b50600436106100415760003560e01c806341280594146100465780635c60da1b146100755780635c9e7caf14610088575b600080fd5b610059610054366004610232565b610102565b6040516001600160a01b03909116815260200160405180910390f35b600054610059906001600160a01b031681565b61005961009636600461026e565b600080546040513060388201526f5af43d82803e903d91602b57fd5bf3ff60248201526001600160a01b039182166014820152733d602d80600a3d3981f3363d3d373d3d3d363d738152605881018490526037600c820120607882015260556043909101201692915050565b60008054819061011b906001600160a01b031685610182565b60405163189acdbd60e31b81526001600160a01b0385811660048301529192509082169063c4d66de890602401600060405180830381600087803b15801561016257600080fd5b505af1158015610176573d6000803e3d6000fd5b50929695505050505050565b600061019083836000610197565b9392505050565b6000814710156101c75760405163cf47918160e01b81524760048201526024810183905260440160405180910390fd5b763d602d80600a3d3981f3363d3d373d3d3d363d730000008460601b60e81c176000526e5af43d82803e903d91602b57fd5bf38460781b17602052826037600984f590506001600160a01b0381166101905760405163b06ebf3d60e01b815260040160405180910390fd5b6000806040838503121561024557600080fd5b8235915060208301356001600160a01b038116811461026357600080fd5b809150509250929050565b60006020828403121561028057600080fd5b503591905056fea2646970667358221220af42e67869efee970ec0252f50826dc0ac090049bd7d61973d0e3cbeb411788864736f6c634300081a0033","linkReferences":{}},"methodIdentifiers":{"deployWallet(bytes32,address)":"41280594","getDeployAddress(bytes32)":"5c9e7caf","implementation()":"5c60da1b"},"id":3}